:020000002529B0
:10000600103083120313FD00FD0B072800000800C3
:0400160000000800DE
:10001A00083083120313FC002330FD00FD0B132864
:06002A00FC0B1328080086
:1000300083120313C31B1E2886111F288615431B1A
:100040002328061124280615C31A282886102928D3
:100050008614431A2D2806102E2806143C18322820
:1000600006163328061286160B208612C3193A2864
:1000700086113B28861543193F280611402806158E
:10008000C3184428861045288614431849280610AA
:100090004A2806143C184E2806164F2806128616C3
:1000A0000B2086123C1C56280D20572803200800E0
:1000B000831203133C104208C30018203C140800AC
:0E00C000831203133E088A003D0882000800E8
:1000CE007928803083120313BF008C28C030BF0004
:1000DE008C289430BF008C28D430BF008C28803000
:1000EE00BF008C28831203133F08013A03196828B6
:1000FE003F08023A03196D283F08033A0319702886
:10010E003F08043A0319732876284003F0003F088D
:10011E00F0077008BF003C147008C30018203C1094
:0A012E004108C30018203C1408002B
:1001380083120313C00140083F0784000008031915
:10014800AD2840083F0784000008C2005820C00AB4
:040158009F280800D4
:10015C0083160313861206120610861006118611DA
:10016C0083128612061286110611861006100D20B7
:10017C000D200D208614061486160B2086120D20D9
:10018C0086160B2086120D2086160B2086120D204B
:10019C00061086160B2086120D2086160B20861252
:1001AC008610861586160B2086120D2086110614D5
:1001BC0086160B208612061086160B2086120D2032
:1001CC0086160B208612061486160B2086120D201E
:1001DC00061086160B208612861506158614061434
:0C01EC0086160B2086120D203C14080023
:1001F80083120313F801F9011030FC00710DF80D9A
:10020800F90D7408F8027508031C750FF902031834
:1002180014297408F80775080318750FF9070310EF
:0A022800F00DF10DFC0B0229080097
:1002320060208A110A128000840ABD0A0319BE0ACC
:08024200F003031D1929080057
:10024A00563083120313A0004930A1005330A20094
:10025A004930A3005430A4004F30A5005230A60004
:10026A003A30A7002030A800A9014330AA00533031
:10027A00AB004530AC002030AD003330AE00333037
:10028A00AF003130B0002030B1005030B2005230EF
:10029A00B3004F30B4004A30B5004530B6004330A1
:1002AA00B7005430B800B901BA01BB018316051171
:1002BA00851007309F00AE200130C300182080301F
:1002CA00C30018202A30BF009C20C030C300182069
:1002DA002030BF009C200230BF000A30C0003030FE
:1002EA00C10067200230BF000B30C0003030C100AF
:1002FA0067200230BF000C30C0003030C1006720D8
:10030A00851CDB290519DB2905198C298929BA0AD3
:10031A000319BB0A0230BF000A30C0006430F4007F
:10032A000030F5003A08F0003B08F100FC203030BC
:10033A007007C10067200230BF000B30C000643074
:10034A00F4000030F5003A08F0003B08F100FC2008
:10035A007808F0007908F1000A30F4000030F5005E
:10036A00FC2030307007C10067200230BF000C301B
:10037A00C0006430F4000030F5003A08F0003B0891
:10038A00F100FC207808F0007908F1000A30F40046
:10039A000030F500FC207808F0007908F1003030D0
:1003AA007007C1006720051DDB29D829051D3A2AD7
:1003BA0085183A2A00303B02031DE52900303A022B
:1003CA00031C3A2A8518EA29E7290130BA02031CD4
:1003DA00BB030230BF000A30C0006430F4000030B2
:1003EA00F5003A08F0003B08F100FC2030307007B5
:1003FA00C10067200230BF000B30C0006430F40037
:10040A000030F5003A08F0003B08F100FC207808BB
:10041A00F0007908F1000A30F4000030F500FC2001
:10042A0030307007C10067200230BF000C30C000B6
:10043A006430F4000030F5003A08F0003B08F1009F
:10044A00FC207808F0007908F1000A30F400003046
:10045A00F500FC207808F0007908F10030307007C8
:0E046A00C1006720851C3A2A372A85293B2AC3
:02400E004A2F37
:00000001FF
